:020000041000EA
:1000000000B5324B212058609868022188439860DF
:10001000D860186158612E4B002199600221596106
:100020000121F02299502B49196001219960352056
:1000300000F044F80222904214D00621196600F024
:1000400034F8196E01211966002018661A6600F04E
:100050002CF8196E196E196E052000F02FF8012189
:100060000842F9D1002199601B49196000215960AB
:100070001A491B48016001219960EB211966A021F2
:10008000196600F012F800219960164914480160C1
:100090000121996001BC002800D000471248134993
:1000A000086003C880F30888084703B5996A0420EC
:1000B0000142FBD001200142F8D103BD02B5186610
:1000C0001866FFF7F2FF186E186E02BD00000240BE
:1000D000000000180000070000035F00212200005C
:1000E000F4000018222000A00001001008ED00E03C
:1000F00000000000000000000000000074B24E7A12
:1001000000200420F7010010CB010010CD010010E9
:10011000C9010010C9010010C9010010C901001077
:10012000C9010010C9010010C9010010CF01001061
:10013000C9010010C9010010D1010010D301001045
:10014000C1010010C1010010C1010010C101001067
:10015000C1010010C1010010C1010010C101001057
:10016000C1010010C1010010C1010010C101001047
:10017000C1010010C1010010C1010010C101001037
:10018000C1010010C1010010C1010010C101001027
:10019000C1010010C1010010C1010010C101001017
:1001A000C1010010C1010010C1010010C101001007
:1001B000C1010010C1010010C1010010C1010010F7
:1001C000EFF30580103800BE00BE00BE00BE00BECA
:1001D00000BE00BEF2EB88714099001060990010DB
:1001E0003802001090A31AE71E481F49086006C88D
:1001F00081F3088810471D480068002801D019487D
:10020000F3E70DA40ECC002902D000F012F8F9E7B4
:100210001749184A002000E001C19142FCD116495B
:100220008847164988471649884700BEFDE701C937
:1002300001C29A42FBD3704760990010C0000020B1
:100240006011002000AA001000000420000004201B
:1002500000AA00100010042000100420000000007C
:10026000704700000000000008ED00E0000000D032
:10027000601100208C200020C955001021030010BF
:10028000C1550010F8B5C0460448054B10B583426F
:1002900003D0044B002B00D0984710BD6011002004
:1002A000601100200000000006480749091A8B1061
:1002B000C90FC91810B5491003D0044B002B00D04A
:1002C000984710BD60110020601100200000000060
:1002D00010B5074C2378002B09D1FFF7D5FF054B4C
:1002E000002B02D0044800E000BF0123237010BDA2
:1002F000E814002000000000EC860010054B10B54B
:10030000002B03D00449054800E000BFFFF7CCFFF5
:1003100010BDC04600000000EC140020EC86001068
:10032000F0B5C64600B53A4CA54405F08FFAFA2060
:10033000C00002F047FB3749374800F013FD00F0DA
:100340002BFC002804D0FA20800002F03BFBFAE7E7
:10035000684600F073FC051E45D1684600F0C0FCFD
:100360006B465B7B002B46D16B461B7B002B4BD037
:100370002A4805F045FB082106A800F01BFE0600F0
:10038000002E22DD264B274F984607AC0CE04B7819
:10039000412B13D18B78542B10D12068013501F0FB
:1003A0000FFC7034AE4210D021003800083105F047
:1003B00027FB210048310B78462BE8D04046013519
:1003C00005F01EFB7034AE42EED1174805F018FB65
:1003D000002001F067F8154805F012FBFA208000B4
:1003E00002F0F0FAFAE7124805F00AFBFA20800062
:1003F00002F0E8FAFAE70F4805F002FB082106A828
:1004000000F0EAFE0600BBE70B4805F0F9FADCE76E
:1004100068FCFFFFF0860010F88600104C87001083
:10042000B087001094870010E0870010FC87001050
:100430000C8700102887001070870010F0B54F4619
:100440004646D646C0B582B06B46FA269D1DDC1DD9
:10045000FF23824689469846394FB60002E0013EA6
:10046000002E0AD0434622002B7029000123386851
:1004700008F0EAF82378FF2BF1D153462200290037
:100480002B703868012308F0DFF84B461B0E220062
:1004900029002B703868012308F0D6F84B461B0C56
:1004A000220029002B703868012308F0CDF84B4654
:1004B0001B0A220029002B703868012308F0C4F8B9
:1004C0004B4622002B7029000123386808F0BCF845
:1004D0005346402B2BD0482B20D00123220029004B
:1004E00038682B7008F0B0F8FF231426984602E015
:1004F000013E002E0CD0434622002B702900012320
:10050000386808F0A1F80023E3562078002BEFDBD1
:1005100002B0E0BCBA46B146A846F0BD3F332B70EE
:10052000220029003868863B08F08EF8DCE7553356
:100530002B70220029003868943B08F085F8D3E737
:100540005C200020F0B54746CE4680B583B06B46B0
:10055000FA269D1DDC1DFF2381469846364FB600C6
:1005600002E0013E002E0AD0434622002B702900F3
:100570000123386808F068F82378FF2BF1D14B4647
:100580000026220029002B703868012308F05CF84F
:1005900001232200290038682E7008F055F8012345
:1005A0002200290038682E7008F04EF8012322003E
:1005B000290038682E7008F047F80123220029002E
:1005C00038682E7008F040F84B46402B2AD0482B54
:1005D0001FD001232200290038682B7008F034F85E
:1005E000FF231426984602E0013E002E0CD043461D
:1005F00022002B7029000123386808F025F8002319
:10060000E3562078002BEFDB03B0C0BCB946B04600
:10061000F0BD3F332B70220029003868863B08F07C
:1006200013F8DDE755332B70220029003868943B1E
:1006300008F00AF8D4E7C0465C200020F0B5DE469A
:10064000454657464E468846E0B516001D0089B01F
:10065000E04B129CE04FE1499B461C6001903860E2
:1006600007F0BCFD0121404601F016FB30000121DE
:1006700001F012FB28000125012101F00DFB2000F3
:1006800001F024FB2B00A340D0245A4624066362C9
:100690002B00126864209340636102F093F9D04804
:1006A00005F024F95B461B6819269D406561FF250E
:1006B000642002F087F9CB4805F018F902ABDC1D85
:1006C000012321003868257004AA013E07F0BCFF11
:1006D000002EF5D1322002F075F9D0220523120642
:1006E000984692460023FF22009691464646984639
:1006F00001239C46E0444146BB4805F081F95A4637
:1007000001231268012093405246936102F05AF986
:100710004020FFF717FF05000100B44805F070F90D
:10072000012D00D13CE15A46012312680025934077
:10073000524653614B46210023703868012304AAB6
:10074000013507F081FFAE42F4D1700002F03AF9B2
:10075000434605360A2BCBD1A548009E05F0C6F8C6
:100760005A460123126898469340D0221206402030
:1007700093619146FFF7E6FE050001009D4805F0F4
:100780003FF9012D00D068E19B4805F0AFF8D52175
:1007900048204900FFF752FE05000100974805F088
:1007A0002FF9012D00D001E1954805F09FF80423B1
:1007B0009946FE35012321003868257004AA07F008
:1007C00043FF02AB1B7A36021E4301235B429C4669
:1007D000E1444B46002BEDD131008A4805F010F979
:1007E000D5233605360D5B009E4200D0C5E0864815
:1007F00005F07CF87720FFF7A5FE052002F0E2F86F
:1008000080216920C905FFF719FE804B05000126EC
:100810009A46002D21D0142002F0D4F8C82E00D121
:100820000CE17720FFF78EFE8046052002F0CAF823
:1008300080216920C905FFF701FE01360500052169
:10084000300002F0ADFC0029E3D12B00424631001C
:10085000504605F0D5F8002DDDD131006C4805F08B
:10086000CFF87A20FFF76EFE002800D09EE0FF232D
:100870004E469846043543462100237038680123CC
:1008800004AA07F0E1FE02AB1B7A3602013D1E43CB
:10089000002DF0D133005B0000D591E05D4B5E4848
:1008A0009A4602235246137005F020F84920FFF7BC
:1008B00049FE002800D079E0FF2501232100386897
:1008C000257004AA07F0C0FE02AB1B7AFE2BF4D100
:1008D00008AB994602AB9D1DFF23984604AE4346E4
:1008E00022002B7029000123386807F0ADFE237821
:1008F00033700136B145F2D14346220029002B70F6
:100900003868012307F0A0FE434622002B7029001F
:100910000123386807F098FE53461B78032B0ED14D
:10092000FC2202ABDB7B92031B04134002AA128A57
:1009300052BA92B21343524601339B0253605B4654
:100940001A6801239340D02212065361334901985B
:1009500007F0DEFC324804F0C9FF53461B78032B36
:1009600000D178E02F49304805F04AF853462F4827
:10097000596805F045F800200BE02D4804F0B6FF5B
:100980005B461A6801239340D0220220120653616D
:10099000404209B0F0BCBB46B246A946A046F0BDF5
:1009A00041462448009E05F02BF8EDE65B461A68A8
:1009B00001239340D0220120120653614042E8E710
:1009C000144B1D489A4603235246137004F08EFFC1
:1009D0006CE7C0464C2000205C200020A86100008D
:1009E000288800105C880010788800108C8800101F
:1009F000C8880010F88800103C8900105C8900103D
:100A0000748900108C890010C0890010E8890010DA
:100A1000148A001050200020508A001040420F001D
:100A20006C8A001024880010908A0010A08A0010A0
:100A3000A8890010A48800103C8A00100D4804F01A
:100A400055FF5B461A6801239340D022032012060B
:100A5000536140429DE7084985E7084804F046FF96
:100A60005B4642461B6801209A4013004A464042BA
:100A700053618EE7AC8A00101C88001018890010A2
:100A8000F0B54646D6464F46C0B5394B88461B782A
:100A900082B0032B00D040020125364BD0261A002D
:100AA00099462B001268360693400100B36151202D
:100AB000FFF7C4FC002849D16B46FA249D1DDE1DBA
:100AC000FF232D4F9A46A40002E0013C002C44D0A5
:100AD000534632002B7029000123386807F0B4FD1B
:100AE0003378FE2BF1D180239B009A46023BFF3BDB
:100AF0004446C2449846434632002B7029000123E5
:100B0000386807F0A1FD3378237001345445F2D1E1
:100B10004346320029002B703868012307F094FD0A
:100B2000434632002B7029000123386807F08CFD02
:100B30004B461A6801239340D022002012065361CD
:100B400002B0E0BCBA46B146A846F0BD4B461B68B1
:100B500001209D4040427561F2E74B461A6801232F
:100B60009340D0220120120653614042E8E7C0467C
:100B7000502000204C2000205C20002010B50028D0
:100B800004D0044B16CB16C0002010BD01204042FB
:100B9000FBE7C0465020002010B5052482B01B485A
:100BA00004F0A4FE0423032202210094184804F058
:100BB00027FF00940423032202211648FFF73EFD7D
:100BC000041E08D1144804F091FE0122134B1A753B
:100BD000200002B010BD0100114804F011FF1148BF
:100BE00004F084FE104804F081FE104804F07EFEFC
:100BF0000F4804F07BFE0F4804F078FE0E4804F026
:100C000075FE0022054B1A75E2E7C046008B001006
:100C1000188B001000C003404C8C0010D41B002027
:100C2000448B0010748B0010888B0010B08B001068
:100C3000D88B0010F48B0010208C001030B5254CA0
:100C40000500A544244C237D002B39D02000FFF75C
:100C500095FF002837D16946FFF712FF002835D1EC
:100C6000FF236A465B00D35C552B0AD00023A38187
:100C70002B0026CC26C326CC26C381239B009D4473
:100C800030BD164BD35CAA2BF0D101236A46A38159
:100C9000C233FF33D35CEE2B0FD0E9236A465B00EF
:100CA000D35CEE2B09D0F1235B00D35CEE2B04D098
:100CB000F9235B00D35CEE2BDAD101236373D7E712
:100CC00001204042D9E702204042D6E703204042BB
:100CD000D3E7C046FCFDFFFFD41B0020FF0100004E
:100CE00030B5040083B0164804F000FE2378012BD1
:100CF00022D0022B1ED0032B20D01249124804F020
:100D00007FFE6568280002F049FD81230022DB0593
:100D100002F0D9FC00220D4B02F0D5FC0095020038
:100D20000B000B4804F06CFE21890A4804F068FEB1
:100D300003B030BD0849E1E70849DFE70849DDE7CE
:100D4000808C0010788C0010988C00100000B03E51
:100D5000A48C0010C48C0010748C0010708C0010D7
:100D60001C88001070B505000C000A4804F0BEFD98
:100D70002900094804F044FE2100084804F040FE20
:100D8000074A0849084804F03BFE084804F0AEFD55
:100D900070BDC046DC8C0010308D0010488D0010F6
:100DA000588D0010648D0010708D0010808D001023
:100DB000F0B5704C0E00A54469461500FFF760FEC3
:100DC000041E00D0CEE0FF236A465B00D35C552BA7
:100DD0001DD06B4608226849D81C07F0F5FA002898
:100DE00046D038236A46D35C013D532B03D11A3BCE
:100DF000D35CEF2B43D02A003000604907F0ACFBF6
:100E000000237355200081239B009D44F0BD5C4B63
:100E1000D35CAA2BDDD1743B6B445A491A888A42B1
:100E20004CD058491A888A422FD06A46522152180B
:100E3000544B12889A42CCD16A4602315218524B16
:100E400012889A42C5D16A46023152184F4B128815
:100E50009A42BED16A46023152184D4B12889A42CC
:100E6000B7D1013D2A0030004A4907F075FBC7E7BA
:100E7000013D2A003000484907F06EFBC0E72A0018
:100E80003000464907F068FBBAE745495888884270
:100E9000CBD1444998888842C7D13D48D9888142FE
:100EA000C3D16B4652201B181B88934245D0013D8D
:100EB0002A0030003C4907F04FFBA1E73849588829
:100EC0008842AED1314998888842AAD13049DF881A
:100ED0008F42A6D169465227C919098891420AD082
:100EE000284A198891421BD0013D2A0030002F4921
:100EF00007F032FB84E769460237C919224A09889C
:100F00009142EDD16A465621521812888242E7D1A9
:100F10006946582009181E4A09889142E0D1A0E785
:100F20001F4A59889142DFD11E4A99889142DBD1EC
:100F3000174ADB889342D7D1B9E76A4602301218C4
:100F4000114B12889A42B2D16A46023012180F4BE6
:100F500012889A42ABD16B4658229B181B888B4251
:100F6000A5D17EE70124300011496A1E07F0F4FA8A
:100F7000644247E7FCFDFFFF1C8E0010788C0010D8
:100F8000FF01000046410000543300003220000001
:100F900020200000048E0010288E0010308E0010DB
:100FA00054310000362000000C8E0010148E00100A
:100FB000D48D0010F0B5DE4657464E464546E0B5A6
:100FC0006E4C8B46A544009002A90020FFF758FD07
:100FD000071E00D0CEE0FF2302AA5B00D35C552B96
:100FE00000D0A4E0664BD35CAA2B00D09FE06548FC
:100FF00004F07CFCDF2402AB9C460125B94664006A
:101000006444D9451DD22779002F16D0637A227AFD
:101010001B02A67A1A43E37A360416431B061E43C4
:101020000BD0627B217B1202A37B1143E27B1B046A
:101030000B4312061A4390460ED101351034052D8C
:10104000DFD14F46380083239B009D44F0BCBB4654
:10105000B246A946A046F0BD4B464946DB005B1AA6
:1010600000991B018A469A4453464146227899606A
:101070001F705E601300803B5146019250465A42F9
:1010800053416C220C308B542B0040213E4A04F01B
:1010900059FA4C218C46E244202251463000FFF799
:1010A00087FE2900394804F0ABFC019B802B0ED051
:1010B0001900374A374804F0A3FC3900364804F0D9
:1010C0009FFC0E2F06D8354BBF00DB599F461900F9
:1010D000334AEFE7832F49D0EE2F2BD1314804F06C
:1010E0008FFC0A2004F0B6FB31002F4804F088FC86
:1010F000404602F053FB81230022DB0502F0E3FAB5
:1011000000222A4B02F0DFFA0B0002004146284879
:1011100004F076FC5146274804F072FC01239C46FB
:101120000135E1441034052D00D06AE789E7022734
:101130007F4287E7204804F063FCD2E71F4804F0B1
:101140005FFCCEE71E4804F05BFCCAE71D4804F0D4
:1011500057FCC6E71C4804F053FCC2E71B4804F0E8
:101160004FFCBEE71A4804F04BFCBAE7194804F0FC
:1011700047FCB6E701277F4264E7C046F4FDFFFF66
:10118000FF010000588E0010788E0010888E00102D
:101190003C8E0010988E0010B08E00108C8F0010C6
:1011A0004C8E0010208F0010448F00100000B03EC5
:1011B000588F0010788F0010388F0010048F0010A7
:1011C000F48E0010E88E0010DC8E0010CC8E001023
:1011D000C08E0010148F0010F0B5DE4657464E4604
:1011E0004546E0B5A04C0F00A54407909F4804F089
:1011F0007DFB012012A9FFF743FC002800D02FE15E
:101200009B4B129A9A420BD002235B429B46584654
:10121000984B9D44F0BCBB46B246A946A046F0BDE3
:10122000954B139A9A42EFD1269C249D279E21002C
:101230009248069604F0E4FB2900914804F0E0FB94
:10124000280092A9FFF71CFC8346002800D003E188
:1012500080203100800001F0CBFF8046A04200D901
:10126000A0464346002BD2D0002FD0D00122924678
:101270000022B946150092AC37E06378002B37D1D5
:10128000A378002B34D1E378002B31D12379002BC4
:101290002ED16379002B2BD1A379002B28D1E379B0
:1012A000002B25D1237A002B22D1637A002B1FD16A
:1012B000A37A002B1CD1E37A002B19D1237B002BBE
:1012C00016D1637B002B13D1A37B002B10D1E37BC2
:1012D000002B0DD1C2459AD2069B5D469C46012348
:1012E00064449C46E244CB4591D22378002BC4D081
:1012F0002023E15C0133E25C01331202114323221B
:10130000E35CA25C1B040B4312061A432423E15C3A
:1013100001330292E25C0133120211432722E35CA3
:10132000A25C1B040B4312061A432823E15C013321
:101330000392E25C0133120211432B22E35CA25CB4
:101340001B040B4312061A432C23E15C0133049265
:10135000E25C0133120211432F22E35CA25C1B0406
:101360000B4312061A4300230021059209A82122EB
:101370000893260002F01CFE23002000383308A941
:101380007E30803605E0834207D002330131B3421C
:1013900003D01A780A70002AF5D1EB005D1B079B79
:1013A0002D019C460299039AEE2365442B70049B01
:1013B000002201335B1AAB606C232E006960EA5493
:1013C00006AB1B7A0F000C3608A9002B00D12D4963
:1013D0003F2230004C3507F0BFF8202229003800AA
:1013E000FFF7E6FC5146284804F00AFB00273100CD
:1013F0000126264804F004FB029A039B244804F0CB
:10140000FFFA049A059B234804F0FAFA049A059B14
:1014100092197B4116001F00029A039BB61A9F4146
:101420003000390002F006FA81230022DB0502F0C9
:101430004AF90022184B02F046F93B000090019156
:101440003200164804F0DCFA2900154804F0D8FAF6
:1014500001239C46E3443DE703235B429B46D6E6DB
:1014600001235B429B46D2E6B4FBFFFFD48F001002
:10147000454649204C040000504152540090001051
:101480001C900010C88F0010409000105090001069
:101490005C900010709000100000B03E849000102E
:1014A000788F0010F0B5DE4657464E464546E0B50B
:1014B0003E4C0100A54404003D4804F0A1FA200080
:1014C00002A9FFF7DDFA00286BD16302019302AB9A
:1014D00098465F1C82AB9B46364B00259A46364B9E
:1014E00099460F231E002E402B4215D043465046EE
:1014F000197804F085FA0F2E21D0304B9D4218D078
:1015000001239C46E04401350137C34540D00F23F9
:101510001E002E402B42E9D1019B2948591904F0A5
:101520006FFA43465046197804F06AFA234B9D42FD
:10153000E6D1F824234804F063FA640010E0AE43D7
:1015400006D000244846013404F05AFAA642F9D1E4
:101550001C4804F055FA2C000F239C43AC420DD8D4
:1015600002AB9C46644420780300203B5E2B00D9EC
:101570002E20013404F06EF9A742F4D1124804F091
:10158000B5F901239C46E04401350137C345BED17E
:1015900083239B009D44F0BCBB46B246A946A046AF
:1015A000F0BD2100094804F02BFAF1E7F4FDFFFF3C
:1015B000C0900010AC900010B8900010FF01000027
:1015C000A4900010B4900010BC900010DC900010AB
:1015D000F0B5DE4657464E464546E0B5A64CA54416
:1015E0000400A64804F00CFA200064A9FFF748FAAA
:1015F0008246002800D0D5E2FC222490002125A8B4
:1016000002F0D6FCE4AB99460022002364AC0492BD
:10161000059324AE0DE030331A40013A53009B1875
:101620009B009B18F22B00D8C7E120344C4500D119
:10163000D2E02278002A00D1CEE0E52AF5D0E37A84
:1016400098460F2BE7D00027092200210BAD0CA8EC
:101650000B9702F0ADFC08222100280002F0AEFC3E
:10166000EB79202B00D021E1AB79EF71202B00D05A
:101670001CE16B79AF71202B00D017E12B796F71D2
:10168000202B00D012E1EB782F71202B00D00DE140
:10169000AB78EF70202B00D008E16B78AF70202B77
:1016A00000D003E100232A786B70202A00D0FDE0EF
:1016B0002B70237A202B00D007E1627F217F12025A
:1016C000A37F1143E27F1B040B4312061A43E37D01
:1016D0000892A27D1B021343677E0993237E3F027B
:1016E0001F433378B346002B05D12B78AB46002B34
:1016F00001D1634B9B46634804F082F94346DB0605
:1017000000D47EE0642004F0A5F8722004F0A2F872
:101710004346DB0700D404E22D2004F09BF82D2380
:101720009846782004F096F8722004F093F840462A
:1017300004F090F8782004F08DF8722004F08AF814
:10174000404604F087F8782004F084F801214E48E0
:1017500004F056F94D494E4804F052F9FB051B0FB1
:10176000984634224B4917A802F028FC4346013B17
:101770000B2B05D81F231A003A403B4200D0F7E15B
:101780000FAB1A000893444B83CB83C21B781370B2
:10179000424B08999846180004F032F959464046E1
:1017A00004F02EF93378002B06D02900300006F023
:1017B0002FFE002800D0F0E10A2004F04BF80123AE
:1017C00080229C460021300052002034E24402F086
:1017D000EFFB4C4500D02CE70499059A9305890A44
:1017E00019432F4804F00CF951462E4804F008F92B
:1017F000E5239B009D44F0BCBB46B246A946A046EB
:10180000F0BD2D2004F026F8722004F023F84346A2
:10181000DB0700D48BE12D2004F01CF82D23984623
:101820002D2004F017F8722004F014F8404604F05C
:1018300011F82D2004F00EF8722004F00BF8404649
:1018400004F008F82D2004F005F801210E4804F0FA
:10185000D7F8089B14489846190004F0D1F843467D
:1018600006930023079306980799049A059B12187C
:101870004B410492059371E76CFCFFFF2891001027
:101880001C910010789100107C9100108491001040
:101890008C910010C09200100C9100109C910010CF
:1018A000A8910010B491001094910010237A202B7D
:1018B00000D102E72B78002B07D0280006F0ECFDC2
:1018C0000222BA49281802F079FB210003222800DD
:1018D000083106F00FFE280006F0DEFD421E00D2A1
:1018E000EBE6AB5C202B00D0E7E60023AB54821E76
:1018F000012800D1E1E6A95C202900D0DDE6AB5447
:10190000C21E022800D1D8E6A95C202900D0D4E666
:10191000AB54021F032800D1CFE6A95C202900D0D8
:10192000CBE6AB54421F042800D1C6E6AB5C202BAB
:1019300000D0C2E60023AB54821F052800D1BCE6CC
:10194000A95C202900D0B8E6AB54C21F062800D1FC
:10195000B3E6A95C202900D0AFE6AB54013A0728D2
:1019600000D1AAE6A95C202900D0A6E6AB54013A32
:10197000082800D1A1E6A95C202900D09DE6AB543F
:1019800003000A3B092800D197E6EA5C202A00D030
:1019900093E60022EA54013B0A2800D18DE6E95C77
:1019A000202900D089E6EA54002B00D185E62B7867
:1019B000202B00D081E62A707FE6A278617812029F
:1019C0000A43511E7A4889B281423BD87F2A00D906
:1019D000B7E0F2542279E17812020A43511E7448AA
:1019E00089B281422ED8591C7F2A00D9AEE07254A8
:1019F000A279617912020A43511E6D4889B281426F
:101A000020D8991C7F2A00D9A4E07254227AE17967
:101A100012020A43511E664889B2814212D8D91C6B
:101A20007F2A00D99AE07254A27A617A12020A439C
:101A3000511E5F4889B2814204D8191D7F2A00D9FE
:101A400090E07254E27BA17B12020A43511E584877
:101A500089B2814247D8591D7F2A70D87254627C5E
:101A6000217C12020A43511E514889B281423AD860
:101A7000991D7F2A6CD87254E27CA17C12020A4321
:101A8000511E4B4889B281422DD8D91D7F2A63D877
:101A90007254627D217D12020A43511E444889B26C
:101AA000814220D8190008317F2A59D87254E27D2A
:101AB000A17D12020A43511E3D4889B2814212D8CB
:101AC000190009317F2A4FD87254627E207E12029B
:101AD0000243511E364889B2814204D819000A31A6
:101AE0007F2A43D87254627F217F12020A43511E1B
:101AF0002F4889B2814200D997E519000B317F2A1E
:101B00001BD87254E27FA17F12020A43511E28485B
:101B100089B2814200D988E50C337F2A13D8F25468
:101B200083E5772003F096FE77239846F9E5772042
:101B300003F090FE7723984672E63F22E1E73F22CA
:101B40008CE73F2245E73F22F2546EE53F224EE705
:101B50003F2290E73F2258E73F2299E73F2262E782
:101B60003F22A3E73F226CE73F22ADE73F22B9E7E0
:101B70004420434606A9091809989B00CB58410503
:101B8000890E0FAF0291C10A019100922021380005
:101B9000084A089703F0D6FCFAE52900064803F046
:101BA0002FFF09E6054803F0A1FE21E6749100101D
:101BB000FDFF0000F8900010A0910010509100105F
:101BC000F0B5CE46474680B5284C0500A544694689
:101BD000FEF756FF002845D10B236B441A7859783D
:101BE0006B465B7B090299466B46DE891B7C114381
:101BF000984611236B441A785F786B46DC8A3F0263
:101C00001743002C2CD01A4803F0FAFE4946194815
:101C100003F0F6FE3100184803F0F2FE4146174883
:101C200003F0EEFE3900164803F0EAFE21001548E5
:101C300003F0E6FE43465C4371196418124803F052
:101C4000DFFE2100114803F0DBFE20001049FFF702
:101C5000BFFC81239B009D44C0BCB946B046F0BD8B
:101C6000099CD0E70B4803F041FEF2E7FCFDFFFFC3
:101C7000F091001008920010249200103C92001085
:101C80005492001068920010809200109C920010F4
:101C9000BC920010D091001010B54024084A830077
:101CA0009A181268C0005440C0222240054CA44635
:101CB00063441A60044B9C466044416010BDC046BA
:101CC00004C0014004D00140004001400123D02263
:101CD00083404021120693629361094A83009A1857
:101CE0001268C0005140C0220A4006498C46634435
:101CF0001A60054B9C460523604443607047C0460C
:101D000004C0014004D00140004001408023DB05B5
:101D10001868000F7047C0460FB400B5084883B07C
:101D200003F0E4FD049B002B07D005A918000191E6
:101D300003F02CFC034803F0D9FD012003F03EFC26
:101D4000F4920010748F001070B5EFF3108C72B61F
:101D50000D4D2B68002BFCD0BFF35F8F0724CB0801
:101D6000C618C05C01230C40A3401C000440034281
:101D700007D103433370BFF35F8F2C608CF310885F
:101D800070BD1000FFF7C8FF2C0100D0F8B5474622
:101D9000CE46884680B5EFF3108C72B6214D2C6884
:101DA000002CFCD0BFF35F8F9A422CD8D4080727B1
:101DB000055D061901241740BC402C421FD00721A5
:101DC0000127894609E0D408055D06194C4639000B
:101DD0001440A1400C00294211D001329342F2D2AA
:101DE00001204042BFF35F8F00220E4B1A608CF33C
:101DF000108800280FDBC0BCB946B046F8BD2C43A4
:101E000010003470EEE7BFF35F8F00232B608CF37C
:101E10001088012040424346002BECD00898FFF781
:101E20007BFFC0462C0100D0044A1078431CDBB273
:101E3000172B00D9102313707047C046981000204C
:101E400000B5054B83B00100009318221F230348FF
:101E5000FFF79CFF03B000BD04930010A41B0020FB
:101E60000021044B044ABFF35F8F02C39342FAD1AF
:101E70007047C046000100D0800100D0054B064AE3
:101E80001360064A136053609360D360136153611B
:101E9000936170478080808000E400E004E400E00B
:101EA0001F2318401E3B8340002905D0C021044A4F
:101EB0004900535013607047802201498B50FAE764
:101EC00000E100E001228240034B1B6813405A1ED0
:101ED0009341D8B27047C04600E100E0012383403F
:101EE000014A13607047C04600E200E0064B103024
:101EF0009B688000C358054A00209B1A2F229A42F3
:101F00004041C0B27047C04600ED00E09C10002088
:101F100070B50D00EFF3108672B60F4A1368002BF0
:101F2000FCD0BFF35F8F0D4B10309B6884001B59B2
:101F30000B4A934203D09D4201D000F0FBFF074BB8
:101F40009B681D51BFF35F8FBFF35F8F0022024B71
:101F50001A6086F3108870BD240100D000ED00E007
:101F6000C1010010F0B557464E46DE464546E0B585
:101F700085B0060002911700EFF3108B72B6674A26
:101F80001368002BFCD0BFF35F8F0025644B5D57B7
:101F90009A46002D00DAA4E06B00624C03935B19B3
:101FA0009B009846A146C1444B4652469B79103649
:101FB00013705D4BB2009B68019299580B1B2F2B3D
:101FC00034D95A4B994200D0A4E0039B584A9C460E
:101FD000584B6544AD006353434602336519E4181A
:101FE000554B0121043B1B1B1B055B0D13436B80F1
:101FF000524BEF71AB80FF23AB71029BAB604B4642
:102000000B431900484B019A9B689950BFF35F8FAF
:10201000BFF35F8F0022414B1A608BF3108805B02D
:10202000F0BCBB46B246A946A046F0BD01200A005E
:102030008243D379BB422FD845464E4613004049D0
:102040001B1B5B415943090D3A4B63533A4B023515
:102050006519043B5B1B1B05354D5B0D2B437380E2
:102060000426B446E0444444131F1B1B4C46A17194
:1020700002991B05A16049465B0D2B43A380314BA0
:10208000E77101431360BDE75800C01880002018B5
:10209000C679BE422BD902000623D356002BF3DAB1
:1020A000101D82462848804604267642B446E14404
:1020B00050464E46361A3005400D824656461C485C
:1020C000957106439680039A944665441D4AAD0077
:1020D000641922604246A371029BA280E771A3604B
:1020E00090E700F027FF002553465D5754E7101D89
:1020F000824690884005001584464046D444664692
:1021000004302018301AE0260005400D3602304316
:102110008046C9E700F00EFF57E7C046240100D013
:10212000852000209C10002000ED00E0C10100107F
:1021300000E0FFFF00A1FFFFCC10002001BDFFFF6A
:10214000AAAA00000148804701BD000070B5012423
:102150000443EFF30581EFF3108C72B6214A136844
:10216000002BFCD0BFF35F8F1F4B05001F4AED1AF9
:102170006D416A43120D1E4D8900AE6852B2765809
:10218000A6421CD00621595691421CD01221595604
:10219000914222D01E215956914220D02A215956CF
:1021A0000324914210D0134B19781A708171BFF338
:1021B0005F8F00220B4B1A608CF3108870BDAB68E8
:1021C0000D4C5C50EFE700246100091989005B1891
:1021D000FF21997109499980E5E70124F4E7022478
:1021E000F2E7C046240100D09C100020AAAA0000FB
:1021F00000ED00E085200020C101001001BDFFFFBF
:1022000000B5074B83B00100009300220523054869
:10221000FFF7BCFD002801DB1F23181A03B000BD27
:102220002093001089200020024B9C4661448900C5
:102230000160704740000034F8B5134D134E2C0078
:10224000FF27B5421ED22368002B0FD0FFF7ECFD0D
:1022500001002800FFF7E8FFA780BFF35F8F083475
:10226000B4420FD223682500002BEFD1FFF7DCFD2D
:1022700001002800FFF7D8FF2771BFF35F8F0834F4
:10228000B442EFD3F8BDC0465811002060110020C1
:1022900010B50400FFF7C8FD01002000FFF7C4FFE0
:1022A000FF232371BFF35F8F10BDC04610B504003C
:1022B0000120FFF7C5FD044B9C4660448000206070
:1022C000BFF35F8F10BDC04640000034034B9C46F7
:1022D000614489000160BFF35F8F704740000034A4
:1022E0000A4B1968EFF3108072B60A68002AFCD016
:1022F000BFF35F8F1B68BFF35F8F00221A6080F30C
:10230000108840BF002000217047C0466420002094
:10231000F0B5DE4657464E464546E0B585B0EFF38C
:102320000582032313409A0011000392B64A5258C3
:10233000904601229A409146B44B1A604B46B448ED
:102340004363434608229B5E9A46002B3DDA434690
:102350009B881BB2002B00DBA1E043469B79002B3E
:1023600000D0F3E0434608241C5F002C23DB4246E8
:102370005269630094461B19DB0063449C68DD6866
:10238000631C00D10FE1A248039984466144826A2C
:102390000B69A61A9B1A9E4215D34A46036A1A4233
:1023A00011D09B4800F0B0FB241A8D41002D02DCB7
:1023B000C4D1002CC2D040BF05B0F0BCBB46B24671
:1023C000A946A046F0BD0C61EBE7424652695B00AE
:1023D00093465344DB009B445B469E68DF6800F0F5
:1023E00093FB801BB9410029B1DB002F00DAE5E047
:1023F0005B46884A1B69934200D1D8E041465A4661
:102400000820085E5288000410435A4651699847D4
:1024100004000D0023002B4300D1CFE0002D00DB92
:10242000E8E0361BAF4134003D005B469C60DD6058
:102430000021595E002900DA89E743465B692200E2
:102440009C462B0048004018C00060448668C7685E
:10245000921BBB41002B00DA79E743466646020037
:102460000094019519810CE07B00DB19DB00F31867
:10247000009801999C68DD68001BA941002904DBD4
:102480001A000023D75E002FEEDA5B461F8053460A
:10249000138043469B881BB2002B00DA5DE743465E
:1024A0001A69EFF3108172B61368002BFCD0BFF3EA
:1024B0005F8F43469B8842461BB29A4601235B428C
:1024C00093801369BFF35F8F00221A6081F3108835
:1024D0005346002B00DA40E743465B699C460823DD
:1024E00043449B4653465F0043465744FF0008223F
:1024F0009A5E67445E46BC68FD68002A19DB3B00B3
:102500000094019567469C4604E01E000023F25E9D
:10251000002A0BDB0098019953009B18DB00FB1885
:102520009C68DD68001BA9410029EEDA6346BC46C1
:102530001F005346338000217B5E3A809A46002B71
:10254000D0DA43469B79002B00D10BE700234246AB
:102550009371434646460821595E08364B1C00D10C
:1025600029E747468C46556902E006004B1C17D008
:102570004B005B18DB00E8180A00E95E43881BB2D9
:10258000002BF2DA01235B42DC178360C4606245F2
:10259000ECD031803B89944603803A814B1CE7D1D3
:1025A000B8466446E1E66B1C00D0ECE6F9E65B4613
:1025B0005C69200023699847002821D15B46424688
:1025C0001B8813811269EFF3108372B6116800291A
:1025D000FCD0BFF35F8F4246594652880A8042467C
:1025E000514651801269BFF35F8F0021116083F360
:1025F0001088ACE6064800F087FA24184D4114E72D
:102600006568246806E7C046342000203C70054019
:10261000004005401123001070B52E4C2569002D97
:1026200004D00A212C48FFF7FFFD70BD2B4E03217B
:10263000300000F05FFAE660FFF7F6FB284B03225C
:102640009C46D02322701B061B6801216370254B1A
:102650006044A3600F2380002061022063806369CF
:102660004942A18019800231198647311D83585291
:1026700018315A5275325C399952183201319952D7
:1026800018320131995218320131995208351832F5
:102690009D52023118329952183201319952183232
:1026A000013199521832013199521832013199523F
:1026B0001832013199520C4B0C49DC600130356203
:1026C000FFF726FC01210320FFF7EAFB084B1D6002
:1026D000A7E7C046E4100020642000200040054029
:1026E00040000034FFFF10003420002011230010B0
:1026F0003860054000487047E4100020F8B51F001E
:1027000008AB1B7804001600002B07D100F004FA78
:1027100032003B00121A8B41002B4CDB2269EFF395
:10272000108072B61368002BFCD0BFF35F8F626914
:102730000223E15E94464B005B18DB0063440029F2
:1027400001DB1A8862802269BFF35F8F0025156064
:1027500080F31088002930DB069A9E60DF601A61E2
:10276000079A5A615A8801325204520C161C002AE8
:102770001FD0B0B20A045E8010432669EFF31085C3
:1027800072B63268002AFCD0BFF35F8FA2881A802D
:10279000A1802369BFF35F8F00221A6085F3108840
:1027A000074923788C4601329A40E36863441A60F3
:1027B000F8BD0126DDE70020FAE701204042F7E7F7
:1027C0003C20000070B5C646010000B50469EFF377
:1027D000108C72B620680028FCD0BFF35F8F0220F7
:1027E0000D5E48696C0080466419E4004444002D85
:1027F00001DB208848800869BFF35F8F00260660F0
:102800008CF31088002D30DBE3606388059801337A
:1028100020615B0406985B0CA26060611A1C002BAF
:1028200021D090B22B04628018430A69EFF310861E
:1028300072B61368002BFCD0BFF35F8F8B882380A8
:102840008D800B69BFF35F8F00221A6086F31088BA
:102850000B7801329A40CB6805498C4663441A6074
:1028600040BCB04670BD0122DBE701204042F7E7E3
:102870003C20000010B543890A14934233DD530015
:102880009B184269DB00944604696344EFF3108CA3
:1028900072B62268002AFCD0BFF35F8F5A88090401
:1028A00094B2090C8A4208D00369BFF35F8F0022FB
:1028B0001A608CF31088002010BD8022120214438D
:1028C0005C80012302698371BFF35F8F0021116077
:1028D0008CF31088054902788C469340C268012029
:1028E00062441360E8E70020E6E7C0463C200000B1
:1028F00040787047F0B504000D0006267642F717C1
:10290000C64636196F4100B582B08F4214D811D037
:1029100000F002F932003B00121A8B41002B15DC4B
:10292000002B44D02000290000F000F902B080BC48
:10293000B846F0BD8642EBD90026002700F0ECF83F
:1029400032003B00121A8B41002BE9DD00F0E4F865
:1029500032003B00121A8B41002B0ADB002301934B
:10296000144B3200009314483B00FFF72BFF002864
:10297000D8DBB0460026BC46104A114F7B6A9C4506
:1029800004D8B96A8845CDD99C45CBD11168EFF3FD
:10299000108072B60B68002BFCD0BFF35F8F1368FA
:1029A000BFF35F8F1E6080F3108820BFE6E7002A28
:1029B000B8D0CBE7E1220010E41000206420002012
:1029C0000040054070B5060000F0A6F8FA220400A9
:1029D0000D00002330000021920001F07FFA001961
:1029E0006941002902DBFFF785FF70BD0120014925
:1029F0004042F8E7FFFFFF7FF0B5CE46474680B57F
:102A000004000D0083B0EFF30587002F0DD0364A88
:102A10000020536A8B4203D3926A0130A24250D302
:102A200003B0C0BCB946B046F0BD304B9846DB6839
:102A30009946434648461E7800F066F80B00494622
:102A400002000436B600715820008E1A2900801A40
:102A500099418F4211DC0ED020BF234A0020536AD7
:102A6000AB42DDD3926A0130A242D9D2E81A421EAB
:102A70009041C0B2D4E78642EED900F04DF8220072
:102A80002B00121A8B41002B20DB00230193184BE3
:102A90002200009340462B00FFF794FE011E15DD37
:102AA000114B2E005A6A95421CD89B6AA34217D339
:102AB0004046FFF7DFFE0C4A0020536A9E42AFD823
:102AC000D0E7581A421E9041C0B2A9E7064A00203A
:102AD000536AAB42A4D3926A0120A242A0D2C5E7B6
:102AE0009542E5D120BFE3E700400540E410002017
:102AF000E122001010B5024A0248FFF725F910BD87
:102B00003C930010A81B00200300416A0A00986A49
:102B1000596A8A42FAD17047034B596A0A00986A87
:102B2000596A9142FAD1704700400540064A536AFB
:102B30009942FCD807D1044B02E05A6A914202D173
:102B40009A6A8242F9D3704700400540F8B5DE46E4
:102B50004E4657464546E0B58B4605000A99180093
:102B6000160000F045FB0A9B6C001F02324B6419F3
:102B70009C46A4006444636881469F4200D9676014
:102B80002B1FDBB29846012B30D9C02380229B013A
:102B9000E31812011A60294BAD0059599A460029D1
:102BA0001BD1226876017240E026802316404246FF
:102BB0005B01E3181E60012A30D9802380229B012B
:102BC000E31812011A6053464A4667605A51F0BC36
:102BD000BB46B246A946A046F8BD586900F008FBBE
:102BE000431C5800C0180338FDD2DAE75B46012BBE
:102BF000CBD1C02303229B01E3181A60023AA368D9
:102C00001A42FCD0E0232268760156401E40802301
:102C10000A4A5B019246E3181E60AD005A462168DD
:102C2000514003220A401A6001225B469A40A36881
:102C30001A42FCD0C1E7C04600800040AC1B002017
:102C4000F0B546464F46D646C0B51F00344B44004B
:102C50009C462418A4006444636888461600FF2B31
:102C600002D880235B006360031FDBB29A46012B0E
:102C700030D9C02380229B01E31812011A60294B2E
:102C800085005959994600291BD122687601724066
:102C9000E0268023164052465B01E3181E60012A9D
:102CA00030D9802380229B01E31812011A6080230F
:102CB0005B0063604B465F51E0BCBA46B146A84634
:102CC000F0BD586900F094FA431C5800C01803384E
:102CD000FDD2DAE74346012BCBD1C02303229B016F
:102CE000E3181A60023AA3681A42FCD0E023226873
:102CF000760156401E4080230A4A5B019146E31844
:102D00001E60850042462168514003220A401A6035
:102D1000012342469340A2681342FCD0C1E7C0465B
:102D200000800040AC1B0020014B8000C058704761
:102D3000AC1B0020F8B5040020481D0017000E0051
:102D400000F056FA0100380000F052FA069B290400
:102D50001B0319432368002B1EDB194B194DE21886
:102D600053425A4180235B019C461203164B624436
:102D70001A60164B1A6017002B689F43FBD1144B47
:102D80002660E2182123A06013602368002BFCDA80
:102D90000823E1601360F8BD3F2322681340B3426B
:102DA000DBD1A3681B051B0D8342D6D1EE22E3685D
:102DB000D20213408B42D0D1EDE7C046001BB700D2
:102DC0000040FDBF08C0004000E0004000F00040AF
:102DD0000430000010B5140080221B4BD2051A608D
:102DE00000281AD00123194A1843194BDA61194AED
:102DF00042401A62596298628022134BD2051A60CF
:102E00001549164A1160E022D2041A60002C07D13D
:102E10008022134B12061A6010BD0D4BD861EBE7F0
:102E200063011B1B9A008023121912015B049A4252
:102E300000D30C4A0C4B1A60054B5A608022084B99
:102E4000D2051A60E8E7C04600B00540D3C007B01D
:102E5000008005402D3FF84FFCFF01000820014095
:102E600000A00540FFFFFF00242000208023024A2D
:102E70009B000B43D362704700800540142310B5BC
:102E80000100188804331B88984710BD162310B51D
:102E90000100188802331B88984710BDF8B54746D3
:102EA000CE4680B50F1E19D0142399460433040072
:102EB0000025012698464B461888434621681B8802
:102EC000984701C4431E9841013540420640AF4235
:102ED000F1D13000C0BCB946B046F8BD0126F8E7D4
:102EE000142370B50400188804331B880D000549AD
:102EF000984703000020002C01DB0130A04029008E
:102F00009847C04655420000AA23064A1B01136099
:102F10008D235B00D3600449044B19605368002B78
:102F2000FCDA70470040024000B0FA000060024046
:102F30007047C04610B50148FEF7EEFE60930010E2
:102F400070B5074D074EB54209D20024013E761BED
:102F5000B60808CD984723000134B342F9D170BDBB
:102F6000A8860010E4860010054B064A06491A6040
:102F7000064A074B1A6010000B689843FBD1704754
:102F800000E00040BFCDFBFE08C00040FE7F3C00DB
:102F900000F00040044BDB6C002B03D18022034B7C
:102FA000D2021A607047C046000011504C201150E8
:102FB000044A054B1A60054A1368DB018033FBD1D4
:102FC0007047C046FFFFFF0100F0004008C000400E
:102FD0004022034B9A675A671A67DA667047C04601
:102FE00000F0014010B5FEF73BFF10BDF8B52D49CC
:102FF0002D4C2E4D641AA6103200302E00D93022EE
:103000002800920000F0DAFFBC2C41D80123711C8B
:1030100008009C46264A30293DD92F272C196407E1
:10302000E30FBF1B052F19D9302917D8002B36D035
:10303000B1006A506146CC1AF3189B006108EB1886
:10304000C900C9181A605A6008338B42FAD10123AB
:103050002100994346188C421AD0711CB300EA50E3
:10306000302915D089006A50B31C2E2E10D09B0039
:10307000EA50F31C2D2E0BD09B00EA50331D2C2E52
:1030800006D09B00EA50731D2B2E01D09B00EA5006
:10309000084B9D60F8BD2F339B1B9C46BDE730005D
:1030A000C8E7C04600010010C00100100000002069
:1030B000C101001000ED00E0002310B5294C82B0E2
:1030C000A367FFF721FF0122274B1A60636C012BD6
:1030D000FCD10322254B1A60224A936B012BFCD1B1
:1030E000013300930121224A22480433FFF722FED4
:1030F000052301210093204A2048FFF71BFE0022F0
:10310000022104201E4BFFF79BFD00220121052018
:103110001C4BFFF795FD0022002107201A4BFFF7FB
:103120008FFD002200210820174BFFF789FD802327
:10313000DB000093002200210920134BFFF706FD5E
:103140000022104B00210620FFF77AFD0420FFF734
:10315000EBFD0E4900F04CF801000020FFF786FE61
:1031600002B010BD008000403CB0004030B00040D4
:10317000002F685900800240008C864700C0024042
:10318000001BB70040597307006CDC0240420F007F
:1031900001480421014B1847001100209D2E00100A
:1031A000124A936F9B0815D29066D166002905D00C
:1031B000FFE7FFE7FFE7516F106F704704B580210D
:1031C0000906C2175140002800D0C84305F024FA70
:1031D000002104BDF0B5146E556E576F166FFFF7E2
:1031E000E3FF1466556657671667F0BD000000D010
:1031F000114A936F9B0813D210665166002905D0BF
:10320000FFE7FFE7FFE7516F106F704704B5002835
:1032100001D00020C04305F0FFF9002104BDC046E5
:10322000F0B5146E556E576F166FFFF7E5FF146615
:10323000556657671667F0BD000000D094464A4AAD
:10324000926F9208624601D228E0C046F0B5464E21
:10325000346E756E776F366F00F020F89446424AF0
:1032600014665566576716676246F0BD94463E4A37
:10327000926F9208624601D254E0C046F0B53A4ED1
:10328000346E756E776F366F00F04CF89446364AA0
:1032900014665566576716676246F0BD002B24DB3F
:1032A00011D000293EDA00B5C943404200D10131B6
:1032B00000F038F8C943404200D10131DB435242AB
:1032C00000D1013300BD002AEBD1002801D1002933
:1032D00005D00020C90FC90701D1C043410800B57E
:1032E00005F092F90022002300BD00B500290ADB99
:1032F000DB43524200D1013300F014F8C94340428D
:1033000000D1013100BDC943404200D10131DB434E
:10331000524200D1013300F005F8DB43524200D1A4
:10332000013300BD002923D1002B18D1002A0CD075
:10333000BC460D4F38667A6600210023FFE7FFE7A1
:10334000FFE77A6F386F67467047002801D007485B
:10335000010000B505F058F90022002300BD02006D
:103360000B00002000217047000000D0FFFFFFFF8E
:10337000002B00D0BFE0130C28D1002AE7D080B486
:10338000114F39667A66FFE7FFE730B4040C7B6FB4
:10339000396F1B0423433B667A66FFE7FFE7FFE7CD
:1033A000C04684B27B6F3D6F1B0423433B667A6645
:1033B000FFE7FFE7C04600232C042D0C7A6F386F1F
:1033C00000196941B0BC7047000000D0F0B59446C8
:1033D0000025140E01D112020835140F01D112017B
:1033E0000435940F01D192000235D40F01D152005F
:1033F0000135D40B0134254F7C66254C3C660E0C00
:1034000093B2FFE7FFE7FFE73C6F6643360C7703B5
:10341000BE467343DF0B5B04C01AB941130C734300
:10342000DB18C91ACE086643360CB64493B2734310
:103430001F0F1B01C01AB941130C73431F0B1B054F
:10344000C01AB941860D8F023E436643360C092DE2
:1034500024DB520A7243801A7703460A6643360C0D
:1034600016235B1BDE40DF40BF1964466643821BA8
:103470007046043506330100D940A840C01900D376
:103480000131A24206D20023F0BD0000000000D0AE
:10349000FFFFFFFF121B0130F3D3F1E709277F1B6A
:1034A000FE406446A2B27243801A00D20139220C57
:1034B0007243130C1204821A99410B0070460435B2
:1034C00013370100F940A840801900D30131002BC7
:1034D00002D1A2420AD2F0BD013000D30131121B49
:1034E000FAD2013BF8D1A24200D2F0BD013000D3A4
:1034F0000131121BF7E7F0B51C0C00D080E00CB4D2
:1035000000251C0A04D11B02160E33431202083593
:103510001C0B04D11B01160F3343120104359C0B05
:1035200004D19B00960F334392000235DC0B02D18D
:1035300092185B4101351C00971864410134464FD5
:103540007C66464C3C660E0CFFE7FFE7FFE7C04693
:103550003C6F6643360C7703BE4697B27743C01B79
:1035600000D20139C01B00D201399FB27743C91B79
:10357000C91B170C77437E04FF0B801BB941CE0893
:103580006643360C0C2D33DBB644120B1F053A4351
:103590001B0B97B27743C01B00D201399FB2774310
:1035A000C91B170C77433E043F0C801BB941860DA5
:1035B0008F023E43664329277F1BFE400C3D774622
:1035C000AF40BF1930BCA2B2ABB272437343801A92
:1035D0009941220C7243130C1204801A9941020083
:1035E0000B000137001BA941F9D2781E0021F0BD64
:1035F0000C277F1BFE4077467F0BAF40FF19E0E7AB
:1036000000245D1C07D0144F7D663966FFE7FFE795
:10361000FFE7FFE73C6F95B29EB265436643401BF0
:10362000B141150C1E0C6543664336042F0C3E4316
:103630002D04401BB141994204D202000B0020002E
:103640000021F0BD01D19042F7D3801A9941013495
:103650009942F2D3F6E70000000000D0FFFFFFFF21
:1036600048404140484018B41B4B5B68FC460193FE
:1036700008BD04DF1F39001018B4174B1B68FC4647
:10368000019308BD00DF293900109446134A926F58
:10369000920809D2624618B40F4BDB68FC460193CE
:1036A00008BD0CDFE13B00100C4AF0B5146E556EFE
:1036B000576F166F6246FFF7EEFF084A14665566AD
:1036C00057671667F0BD18B4034B9B68FC4601931F
:1036D00008BD08DF853A0010E8120020000000D085
:1036E000FFB550404240504059404B40594000E0E7
:1036F000FFB5154F4C00640D03D0BC4204D10C0340
:1037000014D80020090D09055C00640D03D0BC42EB
:1037100004D11C030AD800221B0D1B0501264B40B7
:1037200009D44B4003D58B4200D18242FFBD994260
:10373000FCD19042FFBD0B43DB1803431343F5D08C
:10374000C9434918FFBD0000FF07000000B5FFF79F
:10375000CFFF804100BDC04600B5FFF7C9FF01D9CA
:10376000002000BD012000BD00B5FFF7B9FF01D961
:10377000002000BD012000BD00B5FFF7B1FF804172
:1037800000BD012040054A00121804D85A00121842
:1037900001D8002070470120704700000021002858
:1037A00005D17047C1174840401AFAD0C90713B570
:1037B000064B1B6898470CBC441CA2401005120B1A
:1037C0000349091B09051943114310BD602000205E
:1037D0001F04000010B54C00620D8023D218DB00DE
:1037E000D21A5B057E2A10DD9E3A13DACC17090344
:1037F000490819435242D140640001341532202A4D
:1038000005DAD0400843604310BD002010BD0846D3
:10381000604310BDC80FC018013810BD18B4044B68
:103820005B6AFC46019308BD24DF913D0010000057
:10383000E812002018B4044B5B6EFC46019308BDEF
:1038400064DF213E00100000E8120020132370B551
:103850001D78012D19D014DD1E48FFF717FB060057
:103860001D48FFF713FB1D4C80223100200000F0A3
:10387000A5FB022D06D01A48FFF700FB194B186074
:1038800070BD164C184BA364F5E7174B134C23601F
:103890006360A360E36023616361A361E36123620A
:1038A0006362A362E36223636363A363E3632364EA
:1038B0006364A364E36423656365A365E3652366CA
:1038C0006366A366E36623676367A367E367A3642E
:1038D000D1E7C0465344000053460000E8120020E0
:1038E0004C33000060200020ED38001007B5604622
:1038F00001880A0A0230DF2AFAD1C9B2820804D349
:10390000028840880004104300E00068014A5050DB
:10391000039007BDE81200200FB403BC0CBCF0B547
:103920000124E407634000E0F0B50C0DCF0F661EE4
:103930003605891B640503D3C943404200D30131D6
:10394000640D03D0661CF60A07D0E41B00207F003C
:10395000791C89078912803C24031D0DDF0F6E1E20
:1039600036059B1B6D0503D3DB43524200D3013365
:103970006D0D03D06E1CF60A07D0ED1B00227F00F0
:103980007B1C9B079B12803D2D032F1B661B58D46D
:10399000A446202E46DA20371400BC401D00BD404E
:1039A000F24033412A4380185941CB0F05D0C94317
:1039B000C043002264425041514162464D0D28D11E
:1039C0000D0D07D100281FD0241940414941013A6B
:1039D0000D0DF9D0640006D3013000D30131002C65
:1039E00001D140084000013A0BD4941CE40A04D1F0
:1039F00012051144DB071944F0BDD907204B1943C8
:103A000000E0D9070020F0BD0029DDD1002CDBD17A
:103A1000F0BD0132C6074008CD0728434908002EF3
:103A2000E1D0D9E73C2E29DA203E40371400BC40D3
:103A300000D00124F24014431A00BB401C43D317AA
:103A4000ACE7AC46202F08DA20360400B4400D0065
:103A5000B540F84039412843A5E73C2F0CDA203F18
:103A600040360400B44000D00124F840044308006C
:103A7000B1400C43C117EAE710001900002494E795
:103A80000000F07FF0B50C0D661E3605891BE60AB6
:103A90006405640D02D0651CED0A04D000200121EC
:103AA0000905803C2403A4461C0D671E3F05DB1B53
:103AB000E70A6405640D02D0651CED0A04D00022FB
:103AC00001231B05803C24037740644497B484B2EF
:103AD00096B27443070C7E43150C6F4380B2684363
:103AE000361802D3012000043F183004350C0019A9
:103AF0007D41844688B29AB250430C0C62431F0C3D
:103B00007C438EB27E43921902D301263604A41957
:103B10001604170C3618674101BC81B29AB25143A2
:103B2000040C62431B0C5C4380B25843121802D34E
:103B30000120000424181004130C401863412D18B0
:103B40005E410020474106BC88B293B258430C0C3A
:103B50006343120C544389B251435B1802D30121D1
:103B60000904641819041A0C091862416D185641A9
:103B70000020474118BCF902720D1143F0026A0D92
:103B80001043ED020A0D03D16D1940414941013B3B
:103B9000124E9B1B7600B3420ED26D0007D301304C
:103BA000002671416646354301D1400840001B059F
:103BB000C918E4072144F0BD0BDA013306D1013006
:103BC00004D101314F0D01D04908F2E7E10700208F
:103BD000F0BD013631050020EBE70000FF030000D7
:103BE000F0B51C0D671E3F05DB1BE70A6405640D7D
:103BF00002D0661CF60A04D0002201231B05803C7B
:103C00002403D0252D060026F6432E661E096E6677
:103C1000CE0FF619B44649004F0D02D07E1CF60AAD
:103C200003D000200021403F3F033E1BB600B444B8
:103C3000013F7F05C91B49082E6F013676089C029B
:103C4000950D25437543ED137543AD1301356D1087
:103C5000F603761B0CB4CC02450D2C43A2B2B3B2D2
:103C60005A43270C7B43350C6F43A4B26C431B199A
:103C700002D3012424043F191C041D0CA4187D4107
:103C800024196D41009A91B2ACB26143170C7C4388
:103C90002B0C5F4392B25A43A41802D301221204A0
:103CA000BF182204230C52187B41019C6C431B1942
:103CB000520ED9010A434401A01A81B2B2B2514353
:103CC00003145A43360C734387B27743D617D2197D
:103CD00000277E4136049B191704160C7F185E419D
:103CE0007316ED18F301002680337541A90F06D134
:103CF0006400690AE8055B0A184309D22FE0042230
:103D0000944480337541A90AA8059B0A184326D319
:103D1000404149412404009A019B0D005543641B16
:103D20004343E41A95B286B27543170C7E43030CE5
:103D30005F4392B25A43B61802D301221204BF184D
:103D40003204330C52197B4152429C41002C02D464
:103D50000022013051414008CA071043490802B00F
:103D60006246D7079210084BD218084B9A4203D2EA
:103D700012058918C919F0BD0020002A01DC39009C
:103D8000F0BD01331905F5E7FD030000FE07000053
:103D9000002200B5203200F004F8080000BD000049
:103DA00000220B150AD410B5944600F079F81414CB
:103DB000013400DA0021CB17144C204700200021E9
:103DC00070476244343A0CD40C2A07DA040091405C
:103DD000904052422032D440214310BDD843D943B1
:103DE00010BD203207D40C4694405242203211417B
:103DF000D040204310BD0800C917203203D45242DE
:103E00002032104110BD1800190010BDC33D001034
:103E100000210A00002104E000210A00C11704E08B
:103E20000022002306E0C0460022CB17584059402C
:103E3000C01A994130B5184CA21A002903D10100CB
:103E400010D00020203A4C1512D104D2013A0018AB
:103E500049414C0DFAD3114CA24204D212058918E3
:103E6000DB07C91830BDD243520D00200021F5E711
:103E700003D4013A00184941FBD50B324405C00A6E
:103E80004D052843C90A640003D000246041614104
:103E9000E1E7E0D34408F8E732040000FE07000041
:103EA0000A0DCC0F531E1B05C91A520503D3C94373
:103EB000404200D30131520D03D0531CDB0A07D01E
:103EC000121B00206400611C89078912803A1203CA
:103ED000014BD21A70470000FF03000051434343D7
:103EE000C9188C46110C83B24B4310B4040C6143C7
:103EF00092B280B2504362431C041B0C001910BCE8
:103F000059411304120CC01851416144704700001C
:103F1000132310B512481C78FEF7B8FF0100012CDE
:103F20000AD003DD80220F4800F048F80E48FEF763
:103F3000A5FF0E4B186010BD0A4C5422200000F063
:103F40003DF80B4B6365A365E36523666366A36673
:103F5000E36623676367A367E3672362E361E5E7DB
:103F600053460000E81300204C330000602000207E
:103F7000753F001007B5604601880A0A0230DF2A43
:103F8000FAD1C9B2820804D30288408800041043E1
:103F900000E00068014A5050039007BDE81300207C
:103FA00001480421014B1847101100209D2E0010DC
:103FB000014B1B681847000010110020014B5B6883
:103FC00018470000101100209A4200D28854704710
:103FD0007047C046F8B557464E464546DE46E0B502
:103FE00099460A9B07009A460D9B88469346150002
:103FF0000B9E9B0710D10C9B9E420DD29D1B140063
:104000000E005D4422004B46013431002020B847A9
:10401000A542F7D1B0460B9E002E27D04446751915
:104020005346AA1B013E985D21004B46B847002E1F
:10403000F6D123002C0098460D9B9B070FD55B46BD
:10404000E51A0C9BAB420AD94646984622004B46DD
:10405000310020200135B8470134A845F6D82000AA
:10406000F0BCBB46B246A946A046F8BD2C00E3E72B
:10407000F0B54F464646D646C0B584B098460EAB1E
:104080001B78129F994694460D9C109B119EBA076F
:1040900025D4002E4BD19C4200D3BFE001223A40F0
:1040A00092461F2C00D9B8E00C9A551E302201E030
:1040B000202C03D001342A55A342F9D85246002AB5
:1040C0000DD0A6420BD9202C44D00C9A551E30227C
:1040D00001E0202C3ED001342A55B442F9D1FA0631
:1040E0004DD57A053FD4002C39D10F9B102B00D130
:1040F00079E00F9B022B00D18AE030230C9A012437
:1041000013704B46002B3FD02D230C9A13550134CE
:104110000C9B624600930397434602960194FFF777
:1041200059FF04B0E0BCBA46B146A846F0BD012232
:1041300015003D40AA463A422FD04A46002A02D1F5
:104140000C323A4200D0013E9C42BAD21F2CABD96D
:10415000202E27D92024FA06DAD57A0503D4A342E3
:104160002DD0A6422BD00F9B102B32D0022B20D06B
:10417000202CCDD030220C9B1B191A700134202C1E
:10418000C6D04B46002BBFD17B070DD43B07BFD514
:1041900020230C9A13550134BAE79C429FD21F2C5E
:1041A00000D881E720249AE72B230C9A1355013479
:1041B000AEE7202CACD00C9B1B1901343AE0631EF7
:1041C000012C92D00F9A102A2AD0022A2FD01C003C
:1041D000D0E7BB060ED4202C9AD00C9B1A190134C0
:1041E00078231370C4E7BB060DD478230C9A0124FE
:1041F0001370BFE7202C00D18AE758220C9B1B19B3
:104200001A700134B4E758230C9A01241370B1E7F3
:104210000C9A603301241370ACE7202400265EE77B
:10422000023CBA06E9D40C9A12191C00D8E70C9A81
:104230009246534462221A709AE7C04610B500288D
:1042400000D110BD01F006FBFBE7C0460B0010B526
:10425000002802D049681B68984710BDF0B5DE46BB
:1042600057464E464546E0B59BB09B46249B894643
:104270009846259B0B900C924046424619009A4660
:10428000FFF77FFA002800D0D8E0012240465146CF
:10429000774B5242FFF770FA002800D0CEE001229F
:1042A00040465146734B5242FFF750FA002800D067
:1042B000C4E00022002340465146FFF747FA002899
:1042C00000D0B9E1424653460A9209938023289AC6
:1042D000DB001A400E92289A1A4201D10623269337
:1042E0000A9A099B1600134300D0C7E0289B0025BB
:1042F00000261B0500D49BE100230D93269A0D9BFD
:104300009A4200DC9FE1D01A431E26938023289A0C
:10431000DB001A430023002728920D93279B0024DB
:10432000BB4200D9DC1B0223289A1A400E92289A1D
:10433000134203D07B427B415B421C400D9B002B10
:1043400007D00A9809992A003300FFF79EF90A90CE
:1043500009910022002340465146FFF7F7F9002853
:1043600005D0802000068446099961440991289A65
:10437000414B0B9D13400493269B0A9A0293099B81
:1043800003940092019349465B4628000C9A00F082
:104390008BF90400002F62D0289B220098061F236F
:1043A000C0179843631C984649465B466530A8474A
:1043B0000D9B0025DA179C18DB0F9A465440013FED
:1043C00001E0202D13D00AAA94461F232000634445
:1043D0000A2101355E19FEF70BFF303131702000E4
:1043E0000A21FEF705FF26000400092EE9D805235F
:1043F0000693002304930A330393534605970B9FB8
:10440000029312AB009342465B4649463800019541
:10441000FFF72EFE0E9B0400002B20D00C9BC51A2C
:10442000279BAB421BD91E0022005B464946202039
:104430000135B8470134AE42F6D810E0289B424619
:104440000493279B49460393269B0B98029353465C
:10445000009201935B460C9A00F026F904002000BC
:104460001BB0F0BCBB46B246A946A046F0BDC04654
:10447000FFFFEF7FFFFFEFFFFFF7FFFF734B099F8A
:104480009C467800400D6044FFF78CF9704A714BF0
:10449000FFF719F9704A714BFFF7EEF83B03704ACA
:1044A0001B0B1A4304000D00300011006D4B00225D
:1044B000FFF7D9F86C4A6D4BFFF705F902000B00C6
:1044C00020002900FFF7D8F8FFF784F90D90FFF7D7
:1044D00069F9674A674B04000D00FFF7F4F8002202
:1044E000654BFFF7C9F8FFF775F9644A0600644B9E
:1044F00020002900FFF7E7F8040030000D000F96B8
:10450000FFF750F95F4A604BFFF7DDF802000B0040
:1045100020002900FFF7A7F802000B0006000F009B
:10452000FFF7D1F8320004000D003B0030003900E5
:10453000FFF7A2F8002210901191544B200029009F
:10454000FFF7A3F80022524BFFF796F802000B008A
:1045500020002900FFF799F800224E4BFFF78CF856
:1045600002000B0020002900FFF78FF80D008021CA
:10457000040032003B000020C905FFF774F8020078
:104580000B0020002900FFF777F802000B001098BD
:104590001199FFF77AF80022314BFFF76DF83E4B87
:1045A0000F9C9C46644400222305FFF78CF805000D
:1045B0000E0002000B000A980999FFF7C7F80028BF
:1045C0000AD00D9B2800013B31000D930022304B97
:1045D000FFF75BF805000E00C6270D992B0063312D
:1045E0008F42BF4128997F420437090500D495E6E0
:1045F000334300D182E6099C284A2100284B0A98BF
:10460000FFF7B2F8002808D000222100254B0A98B5
:10461000FFF79CF8002800D070E6269B002B00D105
:104620007CE60E9B5A1E9341269AD31A269375E672
:10463000002304270D9371E643460A9380231B064B
:104640005344099342E6002326935FE601FCFFFFF3
:10465000FB799F501344D33FB3C8608B288AC63F71
:104660000000F03F0000F83F61436F63A787D23F2F
:1046700071A379094F930A400000E03F1655B5BB7E
:10468000B16B0240EF39FAFE422EE63F00002C40AB
:104690000000244000001840FF0300002D431CEBE5
:1046A000E2361A3F80842E41F0B54E46DE4657462C
:1046B0004546E0B597B09946209E219F229B8346B0
:1046C000984607910C923B00320030003900FFF70A
:1046D00058F8002800D0A9E1012230003900CA4B67
:1046E0005242FFF733F8002800D0E1E00122300009
:1046F0003900C64B5242FFF73FF8002800D0B7E020
:10470000002230003900C24BFFF736F8002800D0F5
:1047100099E0002230003900BE4BFFF717F800285F
:1047200000D090E00022002330003900FFF70EF89F
:10473000002800D0B1E000230D93249B5B0501D439
:104740000623984608AB9C46172200243023414696
:10475000624404E0013413550139202C01D00929A9
:10476000F8D8884630003900FFF734F84346DA00BD
:10477000A94B05009B181A685B6808920993FFF71C
:1047800011F802000B0030003900FEF76CFF089AA8
:10479000099BFEF798FF0A900B91FFF73FF88246BE
:1047A000FEF7FCFF02000B000A980B99FEF75BFF77
:1047B00000229A4B0A900B91FEF7DEFF002800D1F1
:1047C000C0E001239C46E2445046FEF7E7FF0200AA
:1047D0000B0008980999FEF7BFFF002802D00023BC
:1047E0009A4601354346002B6AD008AB17269C46F3
:1047F00008956644554614E001235B4243440A2170
:1048000028009A46FEF7F4FC01343031371939702C
:1048100028000A21FEF7ECFC092D00D8D0E0D04694
:104820000500202CE8D10EAB98460323249A1340B0
:10483000012B00D196E02023249A01930392239A1E
:10484000434602921EE0249B58460493239B009605
:104850000197039343460C9A029307994B46FFF73F
:10486000FDFC17B0F0BCBB46B246A946A046F0BD61
:10487000249B5B070ED40322694B24990192039178
:1048800023990291009358464B460C9A0799FFF7DB
:10489000A1FBE6E70422634BEFE73B003200002078
:1048A0000021FEF7E0FE012306000F000D9344E710
:1048B000249B0393239B0293042301935A4BE1E728
:1048C0002800FEF76FFF02000B0030003900FEF7F2
:1048D000CAFE524B002206000F00FEF737FF0EAB58
:1048E000984600280AD10022300039004B4BFEF7D1
:1048F00043FF002802D1EB0700D50135202C94D0CE
:1049000008AA94461723280063440A2101341E197B
:10491000FEF746FC3031280031700A21FEF740FCDA
:10492000051EEBD10323249A1340012B1BD0202C0E
:1049300000D180E70D9B002B35D02D224146631C12
:104940000A5579E700220A980B99344BFEF7FEFED0
:10495000002800D046E75346002B51D101239C4646
:10496000E2443FE72024239B002BE0D00D9B002B4B
:1049700003D1249A0C33134202D0239B013B23938F
:10498000239BA342D3D908AB9C4617223023624411
:10499000202C00D14FE72399013413558C42C6D007
:1049A000202CF8D147E7249B5B0724D4249A2300CA
:1049B000120700D440E72022414601330A553BE765
:1049C0005746089D202C00D12DE72200302140467B
:1049D000002F09D00132B154202A00D123E7D3435C
:1049E0001B191B18002BF5D10EAB98462E23414600
:1049F000541C8B5482E72B224146631C0A551BE74B
:104A0000DB0700D4EEE6A9E7FFFFEFFFFFFFEF7F34
:104A100065CDCD4165CDCDC1F09500100000E03FE2
:104A2000F4930010F893001004940010249B039357
:104A3000239B029303230193004B23E70094001070
:104A4000F0B5DE464E4657464546E0B59FB01C00E1
:104A5000289B91460993C94AC94B8B4608901A6016
:104A6000002900D118E2002320789A46002800D1BE
:104A70001AE226001D005C460AE02A006F1C4B4625
:104A8000089D2100A8473D0001363078002870D0ED
:104A90002528F2D110239B46083B9A46043B9846B2
:104AA000023B00219C46721C107816000300203B3C
:104AB000DBB2102B03D8B34F9B00FB589F4603007B
:104AC000303B092B32D900230A932A2868D00023CF
:104AD00098462E283ED00300683BDBB2122B1CD830
:104AE000A94A9B00D3589F46012301321943DBE7B3
:104AF000634601321943D7E7434601321943D3E7EE
:104B00005B4601321943CFE7534601321943CBE7E5
:104B100080235B007078194301360300253BDBB22C
:104B2000532BAAD8994A9B00D3589F4600270300CD
:104B3000B800C01901364000C018337830381A0068
:104B4000303A0700092AF3D90A9018000023984642
:104B50002E28C0D180237078DB0019430300303B3E
:104B6000721C092B00D8A1E12A2800D1B2E116005D
:104B7000B1E7A346AA462C00D14503D801235B42E6
:104B80004B449A464B46524659460020089DA8473A
:104B900020001FB0F0BCBB46B246A946A046F0BDFF
:104BA000099B40CB0A96002E03DB50780993561CD4
:104BB0008DE72838014370420A9009935078561CBB
:104BC00085E7782800D1DFE1582800D14CE26F2832
:104BD00000D14FE3622801D100F030FC10230A001D
:104BE0009A430B92692801D000F0A9FC0A230C9388
:104BF0004B0500D5D0E10B9A802311009B00194092
:104C00008B461A4200D0A1E2802311005B001940BC
:104C10008A461A4200D0B6E313005B0600D5EDE2E7
:104C2000130009991B0601D400F076FC08C91BB2D9
:104C3000D8171A18424092B209919346DA0F12928D
:104C4000002B09D1802310220B99DB000B409143EC
:104C50000B91002B00D0E4E20B9A6123920600D561
:104C600041230EA91F228C46DBB262440A3B5F46F9
:104C70001395A34655460C9CB2460D9316000AE0C8
:104C80003033DBB201357355A74200D2EDE2202D5F
:104C900000D1EAE2070021003800FEF7A9FACBB202
:104CA0000929EDD90D9A94466344DBB2EAE78023E3
:104CB0009B007078194301362FE77078682800D17F
:104CC000CDE180230136194327E770786C2800D1A5
:104CD000BFE180235B00194301361EE7462800D15F
:104CE0009BE10722099B0491073393430A9A190019
:104CF0000392424602920CC90898009201930991CE
:104D00002A004B462100FFF7CFFC01360500BCE628
:104D10002A006F1C4B46089D21002520A84701361C
:104D20003D00B2E68B0700D4ADE1099B2A009A460C
:104D30006B1C9846534601CB21009A46089F4B4670
:104D4000C0B2B8470A9B9C466544012B00D886E256
:104D5000089B4746B04626004C4699463A00230039
:104D6000013731002020C847AF42F7D1A146534652
:104D7000340046460993013687E6C046414A001092
:104D8000202000200C940010509400109C940010DF
:104D9000099B04CB9B4643460992002B00D1C6E0F9
:104DA00013789C46002B00D1BDE34346013B099A92
:104DB0000133D0180A9F130001E0834203D05A78D0
:104DC0000133002AF9D1099A0A979B1A0B93802381
:104DD0000A00DB001A400C92194204D00B9B434599
:104DE00001D943460B9302231A000A400D920B424D
:104DF00000D187E16046002800D168E10C9B002BC0
:104E000000D10DE1A844C246099B57465B1B98465A
:104E1000089BB2462A0026004C46994609E023002A
:104E20003100551CC8474346585D002800D126E193
:104E30002A009742F3D1A1463D00340056460D9B0F
:104E4000002B00D043E15B46013609931DE6099B28
:104E50001A0008CA9246002B48D0212211438B46E3
:104E60000EA884461F216144099500220F27A446FD
:104E70000D0002E0202A0CD00B003C001C4020005A
:104E80003730092C00D807380132A85419090F2BE4
:104E9000F0D86446099D32E0DC4B2078089300236B
:104EA0009A46002800D0E4E5002465E64346060063
:104EB0000A9F9800C018013240008019167803003C
:104EC00030003038303B0928F3D9300098461600BE
:104ED0000A9700E6099B023604CB9046D24340462F
:104EE000D2171040804609933078F4E5102208006C
:104EF000904311321043834600224905B0D55B46EA
:104F00000693082305934346049310230393002339
:104F1000029316AB019200932A004B462100089899
:104F2000FFF7A6F85346050001360993ADE513785F
:104F30009C46002B00D1F7E202235B4237E7202397
:104F400002009A43472A04D180231B0119430223FC
:104F50009843452801D1202319430722099B049136
:104F6000073393430A9A19000392424602920CC9EE
:104F700008980092019309912A004B462100FFF7FF
:104F80006DF90136050080E510230C930C230A000F
:104F90009A430B924B0503D501230B9A9A430B922C
:104FA000692800D127E6642800D124E60B9A8023E3
:104FB00011009B0019408B461A4200D066E1802305
:104FC00011005B0019408A461A4200D039E21300F2
:104FD0005B0600D53CE113001B0600D4A6E2099B4A
:104FE00004CB1204120C934609935B46002B00D0AD
:104FF0009AE10B9A1033110099430B91520500D49A
:1050000092E100239A460B9B06930A9B0593434625
:1050100004930C9B039300230CE12023194360E6C7
:10502000099B0A9A5B1B98464B4691461F00B24665
:105030002600089C2A003B003100A047434601356A
:10504000585D0028F6D14A463400B94656460A92C1
:10505000F5E6C0239B00B078194302365DE5C02316
:10506000B0781943023658E50C230A009A431433EA
:105070001A43103B0B920C934B058DD496E7A14637
:1050800034005646DBE60A9A012A00D853E26B1E2A
:105090009F18089BB04626004C4699462A002300DC
:1050A000013531002020C847BD42F7D1A146340068
:1050B0004646099B3A0001CB210098467D1C4B4691
:1050C000089FC0B2B847434601360993DDE40B9B05
:1050D0000A9AA8469A4200D8B5E694466544ED1A65
:1050E000089B4746B04626004C4699463A002300A6
:1050F000013731002020C847AF42F7D1A146340024
:105100004646A0E60B9A0A99531C914200D814E235
:105110004B199B1A1F00089BB24626004C46994625
:105120002A002300013531002020C847BD42F7D1B5
:105130000A9BA14601330B93099B34001B7856460A
:105140009C466046002800D058E67CE60722099B72
:1051500007339343013294469C4462465F68099248
:105160001A68FB171093119310981199030053407C
:105170000E930B007B400F9394460E9A0F9B121ACE
:105180008B410E920F93FB0F6246129300233A431A
:105190009B463DD00B9A6123920600D54123002205
:1051A000DBB20EA90A3B8C4692460D9343461F3252
:1051B00062441395159655460E9E0F9FA246904643
:1051C0000C9C14930CE03032D2B2434601355A5550
:1051D000BB4500D18AE1202D00D18AE106000F00F5
:1051E0002200002330003900FEF740F8D2B2092A2D
:1051F000E9D90D9B9C466244D2B2E6E7FF230999A8
:1052000004C913401A00099117E5C046D13F0010A8
:105210000B9A1033110099430B915205BAD5002314
:105220009A460B9B06930A9B0593434604930C9B5B
:105230000393129B02935346019316AB2A000093EB
:1052400021004B460898FEF713FF013605001CE4C9
:10525000FF22099B02CB11408B460993C5E65346BA
:10526000454609930136FFF710FC56465C46AA46B0
:10527000139DD6E708230C930B910B99642800D05B
:1052800084E60B9B5B0500D586E6B4E40722099B08
:1052900007339343013294469C44624609921A684C
:1052A0005B6810009B4613005A46134307D10B9AC4
:1052B0001033110099430B91520500D5A1E60B9ACA
:1052C0006123920600D541230022DBB20EA90A3BDE
:1052D0008C4692460D9343461F3262445F461295B8
:1052E000A34655460400B24690460C9E13930DE02B
:1052F0003032D2B2434601355A550023BB4200D169
:1053000000E1202D00D100E104000F003200002355
:1053100020003900FDF7AAFFD2B2092AE8D90D9B77
:105320009C466244D2B2E5E70B9A6123920600D50F
:105330004123DBB20EA90A3B1F228C460D932300AA
:1053400062445C461295170055469B46B2460C9E39
:1053500008E03033DBB201357B55B4420ED3202D4B
:105360000CD0040031002000FDF742FFCBB2092928
:10537000EFD90D9A94466344DBB2ECE756465C469F
:10538000AA46129D3FE6099B1A0008CAD917139234
:105390005A184A409246DA0F1292002B08D1802305
:1053A00010220B99DB000B4091430B91002B2BD16A
:1053B0000B9A6123920600D541230EAA1F2794461B
:1053C000DBB20A3B0D9567445D460993A3465446FC
:1053D000B2460C9E08E03033DBB201357B55B44257
:1053E0000ED3202D0CD0040031002000FDF700FF6B
:1053F000CBB20929EFD9099A94466344DBB2ECE7B2
:1054000056465C46AB460D9D0B9B2A0006930A9BB5
:1054100021000593434604930C9B08980393129B29
:10542000013602935B46019316AB00934B46FEF7A1
:105430001FFE139B05000993FFF727FB02230C9324
:105440001AE7099B04CB92461293002A08D18023C5
:1054500010220B99DB000B4091430B91002B2BD1B9
:105460000B9A6123920600D541230EAA1F2794466A
:10547000DBB20A3B0D9567445D460993A34654464B
:10548000B2460C9E08E03033DBB201357B55B442A6
:105490000ED3202D0CD0040031002000FDF7A8FE13
:1054A000CBB20929EFD9099A94466344DBB2ECE701
:1054B00056465C46AB460D9D0B9B2A0006930A9B05
:1054C00021000593434604930C9B08980393002303
:1054D00002935B46019316AB00934B46FEF7C8FD63
:1054E000129B050009930136FFF7CFFAB44200D8AA
:1054F00071E6149B54460E960F97AA469846159E41
:10550000139D8EE6A64200D8FBE6139B56469846AE
:10551000AA465C46129D76E508C9D8171A1842407B
:105520000991FFF78AFB00230B9350E4099B04CBFE
:105530009346099359E52F00BBE50B9301E6063B23
:105540000C939AE60CB410B584B006AC08CC0A00F3
:105550000094010004480394FFF772FA04B010BCF1
:1055600008BC02B01847C046C93F001000B585B05E
:105570000391012102900093034813004A4202A9BB
:10558000FFF75EFA05B000BD4D42001010B5094AA4
:105590000300146884B0002C08D001220091064852
:1055A000524203A9A047012004B010BD00F09EF9AB
:1055B0000020F9E7202000203D42001000BEFDE75A
:1055C00010B5FFF7FBFFC04670B5FDF7B9FC074DFE
:1055D000074EB54209D20024013E761BB60808CD1D
:1055E000984723000134B342F9D170BDE48600101E
:1055F000EC860010030010B5080011001B689847E6
:1056000010BDC046F0B546464F46D646C0B5437DB0
:1056100080460E001700002B46D0002A3FDD4B1EAF
:105620009946244B0125002400209A460DE04B4664
:105630001B5D0D3B5A425341325DDBB20A2A0BD04F
:105640002B00013401359F421ADD002CEFD1434677
:10565000325D1B7D0A2AF3D1002BF1D1A04204DA7E
:105660004346211A1B6830189847434650461B682A
:1056700002219847013428002B0001359F42E4DCC9
:10568000874204DD4346391A1B6830189847F619DB
:10569000013E33780D3B5A42534142461375E0BCFC
:1056A000BA46B146A846F0BD0368110030009847DD
:1056B000F5E7C04640960010F0B5C6460C000968F4
:1056C000060000B5802906D04B1C236064182671A3
:1056D00080BCB846F0BD0F4B1D68002D16D0231DB1
:1056E00098460D4F02E02D69002D0FD02B68002B3E
:1056F000F9D03B68002B01D0AB42F4D128004146E1
:105700002268FFF77FFF2D69002DEFD101230021D3
:10571000DBE7C046141C00201C1C0020F0B5DE4650
:1057200057464E464546E0B585B017001C000600BA
:105730000D00FDF7F1F90023314A12184B41002BFF
:1057400059DB304908008A4602F086FF01906B1C45
:1057500003D1300002F0A0FE0500002C26D12A4B18
:1057600098462A4B1C68002C15D0002F21D1284FB9
:1057700002E02469002C0ED02368002BF9D03B688E
:10578000002B01D0A342F4D120002A003100C047F1
:105790002469002CF0D1019B002B28D1280005B0F2
:1057A000F0BCBB46B246A946A046F0BD194B984690
:1057B000D7E7174B994602ABDF1D0A239B4602E051
:1057C0002469002CE7D02368002BF9D04B461B68D6
:1057D000002B01D0A342F3D12A0031002000C047A2
:1057E0005B460122390020003B70C047E8E7504685
:1057F00002F002FFD2E70122074B5242A1E7C04666
:1058000040420F0058110020F5550010141C0020D4
:105810001C1C002005560010FFFFFF7F0A4A13687A
:10582000002B05D10CE01A001B691032002B07D0A9
:105830009842F8D1002902D10369136001617047D1
:105840000029FCD01060FAE7141C002010B500F00D
:1058500003FB10BDF0B5CE46474680B583B06B461E
:105860000600DD1D2870FDF757F900231A4A1218AB
:105870004B41002B2BDB19490800884602F0ECFE57
:10588000174B81461C68002C14D0164F02E0246987
:10589000002C0FD02368002BF9D03B68002B01D0DF
:1058A000A342F4D1200001222900FFF7ABFE2469B6
:1058B000002CEFD14B46002B05D1300003B0C0BC0B
:1058C000B946B046F0BD404602F096FEF5E701222B
:1058D000054B5242CFE7C04640420F00581100200E
:1058E000141C00201C1C0020FFFFFF7F70B504006B
:1058F00002F0D2FD01230100050001222000FFF784
:105900000DFF084B1C68002C06D06368002B05D0E7
:1059100098472469002CF8D1280070BD2469002C18
:10592000F3D1F9E7141C0020F0B5CE46474680B508
:10593000A5B004000D00FDF7EFF800232A4A121865
:105940004B41002B49DB294E300002F085FE00233D
:105950000700039322002B00254803A9FFF706FE4A
:10596000039B8046002B14D1224B1C68002C06D0D0
:105970006368002B0BD098472469002CF8D1002FC6
:1059800027D1404625B0C0BCB946B046F0BD246919
:10599000ECE7184B1D689946002D22D0164C02E00A
:1059A0002D69002D11D02B68002BF9D02368002B16
:1059B00001D09D42F4D1039B28001A0004A9019351
:1059C000FFF720FE2D69002DEDD14B4603951C6895
:1059D000CCE7300002F010FED3E70122074B524221
:1059E000B1E70395CBE7C04640420F0058110020B5
:1059F000B9560010141C00201C1C0020FFFFFF7F64
:105A00000FB400B583B004A901C90191FFF78CFF61
:105A100003B008BC04B018477047C0460022014BD1
:105A20001A707047862000204B790020FF2B0BD185
:105A30008B79002B08D1CB79012B05D1082A03D90A
:105A40008A78024B09301A707047C04686200020C1
:105A50000120704710B5012909D1154953791079F2
:105A600009781B0203430020994202D010BD012097
:105A7000FCE75378012B08D0022BF7D100206422D9
:105A80000021FDF7A7F90120F0E7D37891781B02F8
:105A90001943DB0507D54A0A100001231A407E335B
:105AA0001940FDF71DFA01204A0A4042F5E7C046B9
:105AB00086200020004870476496001070B50500ED
:105AC00014000120012909D153780020012B05D1B0
:105AD000637912791B021343072B00D070BD21009C
